:020000040800F2
:100000000805002045010008E1030008D9030008A5
:10001000DD0300088D0100081D0700080000000036
:10002000000000000000000000000000AD04000817
:10003000910100080000000069040008990500080B
:100040005F0100085F0100085F0100085F01000810
:100050005F0100085F0100085F0100085F01000800
:100060005F0100085F0100085F0100085F010008F0
:100070005F0100085F0100085F0100085F010008E0
:100080005F0100085F0100085F0100085F010008D0
:100090005F0100085F0100085F0100085F010008C0
:1000A0005F0100085F0100085F0100085F010008B0
:1000B000FD0500085F0100085F0100085F010008FE
:1000C0005F0100085F0100085F0100085F01000890
:1000D0005F0100085F0100085F0100085F01000880
:1000E0005F0100085F0100085F0100085F01000870
:1000F0005F0100085F0100085F0100085F01000860
:100100005F0100085F0100085F0100085F0100084F
:100110005F0100085F0100085F0100085F0100083F
:100120005F0100085F0100085F0100085F0100082F
:10013000DFF80CD000F018F800480047310B000839
:10014000080500200648804706480047FEE7FEE70E
:10015000FEE7FEE7FEE7FEE7FEE7FEE7FEE7FEE777
:100160009D05000831010008064C074D06E0E068D7
:1001700040F0010394E8070098471034AC42F6D3EE
:10018000FFF7DAFF600B0008800B000800BFFEE7F6
:1001900070470EB50121084600F068F940F2E730DB
:1001A000ADF804004720ADF800000020ADF80600CF
:1001B000ADF802008DF8080069464FF0804000F06D
:1001C0005BFA0121880700F02BFA01221146900703
:1001D00000F049FA0121880700F028FA0EBD08B5A1
:1001E0004FF4E06000F036F91C208DF8000000208C
:1001F0008DF8010003208DF8020001208DF8030026
:10020000684600F0EFF808BD2DE9F04102460025F0
:100210000026002000230024002791F803C00CF0E2
:100220000F0591F803C00CF0100CBCF1000F03D0C7
:1002300091F802C04CEA050591F800C0BCF1000F2E
:1002400031D0146800202BE04FF0010C0CFA00F3C1
:10025000B1F800C00CEA03069E4220D183004FF0A3
:100260000F0C0CFA03F7BC4305FA03FC4CEA040438
:1002700091F803C0BCF1280F06D14FF0010C0CFA25
:1002800000FCC2F814C00AE091F803C0BCF1480FAA
:1002900005D14FF0010C0CFA00FCC2F810C0401C54
:1002A0000828D1D31460B1F800C0BCF1FF0F34DDD1
:1002B000546800202EE000F1080C4FF0010808FA05
:1002C0000CF3B1F800C00CEA03069E4221D1830072
:1002D0004FF00F0C0CFA03F7BC4305FA03FC4CEA91
:1002E000040491F803C0BCF1280F05D100F1080CFB
:1002F00008FA0CF8C2F8148091F803C0BCF1480F5A
:1003000007D100F1080C4FF0010808FA0CF8C2F808
:100310001080401C0828CED35460BDE8F0814161B4
:10032000704701617047000008B501210C2000F002
:10033000ADF84FF40040ADF8000010208DF8030038
:1003400003208DF8020069462148FFF75DFF4FF456
:100350008040ADF8000069461D48FFF755FF4FF497
:100360000050ADF8000069461948FFF74DFF4FF403
:100370008050ADF8000069461548FFF745FF4FF47F
:100380008070ADF8000069461148FFF73DFF4FF45B
:100390000070ADF8000069460D48FFF735FF4FF4D7
:1003A0000060ADF8000069460948FFF72DFF4FF4E3
:1003B0000070ADF8000069460648FFF725FF4FF4CE
:1003C0008060ADF8000069460248FFF71DFF08BDD8
:1003D000000C01400008014000BFFEE700BFFEE73F
:1003E0007047000070B5002100230F22C47804B3C9
:1003F000154C246804F4E064C4F5E064210AC1F1FA
:100400000403CA40447804FA03F184781440214379
:1004100009010E4C0678A155047804F01F0501244B
:10042000AC4005786D11AD0005F1E025C5F800413F
:1004300009E0047804F01F050124AC40044D06785F
:10044000761145F8264070BD0CED00E000E400E0B8
:1004500080E100E002490143024A11607047000058
:100460000000FA050CED00E07047000029B1064AD3
:10047000D2690243044BDA6104E0034AD269824341
:10048000014BDA61704700000010024029B1064AB2
:1004900092690243044B9A6104E0034A92698243E1
:1004A000014B9A617047000000100240704710B580
:1004B00000F002F810BD00000CB500200190009083
:1004C0003348006840F480303149086000BF30484C
:1004D000006800F4003000900198401C01900098E2
:1004E00018B90198B0F5A06FF1D12948006800F45F
:1004F000003010B10120009001E000200090009831
:10050000012843D12348006840F0100021490860C9
:100510000846006820F0030008600846006840F0C4
:10052000020008601A484068194948600846406857
:1005300048600846406840F480604860084640686B
:1005400020F47C1048600846406840F4E810486099
:100550000846006840F08070086000BF0C480068E2
:1005600000F000700028F9D00948406820F003002E
:10057000074948600846406840F00200486000BFF4
:100580000348406800F00C000828F9D10CBD0000B9
:1005900000100240002002407047000010B51348D0
:1005A000006840F0010011490860084640681049A1
:1005B00008400E494860084600680E4908400B494B
:1005C00008600846006820F48020086008464068FB
:1005D00020F4FE0048604FF41F008860FFF767FFBB
:1005E0004FF000600449086010BD00000010024098
:1005F0000000FFF8FFFFF6FE08ED00E010B5012156
:10060000880700F01FF840B104480068401C034907
:1006100008600121880700F006F810BD00000020E6
:10062000CA4302827047CA430282704721B10288DE
:1006300042F00102028004E002884FF6FE731A4085
:100640000280704730B50246002000230024158A3E
:1006500005EA0103958905EA010413B10CB10120F3
:1006600000E0002030BD1AB183890B43838102E092
:1006700083898B4383817047002202881D4B9842F7
:100680000ED01D4B98420BD0B0F1804F08D01B4BC1
:10069000984205D01A4B984202D01A4B984204D186
:1006A0004FF68F731A404B881A43174B984207D066
:1006B000164B984204D04FF6FF431A40CB881A439A
:1006C00002808B8883850B8803850A4B98420BD068
:1006D000094B984208D00E4B984205D00D4B9842DA
:1006E00002D00D4B984201D10B7A038601238382FD
:1006F00070470000002C014000340140000400401D
:1007000000080040000C00400010004000140040B1
:1007100000400140004401400048014000BFFEE7A6
:1007200002E008C8121F08C1002AFAD170477047BA
:10073000002001E001C1121F002AFBD17047000018
:100740000C480D490978405C0C49087009490A4871
:1007500000788030085C0A49087007480078401C1F
:100760000549087008460078802801DB00200870E1
:100770007047000006000020060100200400002051
:100780000500002010B5002400BF1AE000F01EF89C
:100790004FF400610C48FFF7C4FD4FF400710A48A4
:1007A000FFF7BFFD4FF400710748FFF7B8FD204683
:1007B00000F05AF84FF400610348FFF7B0FD601CE9
:1007C000C4B2102CE2DB10BD000C014070B5002457
:1007D000002500BF3DE0FFF7B3FF002535E01E48D0
:1007E000007800F0010028B14FF400711B48FFF7BA
:1007F00098FD04E04FF400711848FFF790FD184889
:10080000007800F0010028B14FF480611348FFF731
:1008100088FD04E04FF480611048FFF780FD4FF43D
:1008200080711048FFF77DFD4FF480710D48FFF790
:1008300076FD09480078401007490870084800789C
:10084000401007490870681CC5B2082DC7DB601C42
:10085000C4B2082CBFDB70BD0400002000080140BA
:1008600005000020000C014010B50446A4B94FF467
:100870000041AE48FFF753FD4FF48041AB48FFF70E
:100880004EFD4FF40051A948FFF749FD4FF4805148
:10089000A648FFF744FD47E1012C10D1E103A3482E
:1008A000FFF73FFDA103A148FFF739FD61039F4812
:1008B000FFF735FD21039D48FFF731FD34E1022CA0
:1008C00010D1A1039948FFF72AFD61039748FFF76C
:1008D00028FD21039548FFF722FDE1029348FFF729
:1008E0001EFD21E1032C14D14FF400418F48FFF786
:1008F00018FD4FF480418D48FFF713FD4FF4005170
:100900008A48FFF70CFD4FF480518848FFF707FD38
:100910000AE1042C10D161038448FFF700FD210394
:100920008248FFF7FCFCE1028048FFF7FAFCA102D5
:100930007E48FFF7F4FCF7E0052C14D14FF400419A
:100940007A48FFF7EEFC4FF480417848FFF7E7FC68
:100950004FF400517548FFF7E4FC4FF480517348A1
:10096000FFF7DDFCE0E0062C14D14FF400416F48A6
:10097000FFF7D5FC4FF480416C48FFF7D2FC4FF4F1
:1009800000516A48FFF7CDFC4FF480516748FFF7EC
:10099000C6FCC9E0072C14D14FF400416348FFF7AF
:1009A000C0FC4FF480416148FFF7BBFC4FF400519D
:1009B0005E48FFF7B6FC4FF480515C48FFF7AFFC90
:1009C000B2E0082C10D121035848FFF7A8FCE1023F
:1009D0005648FFF7A4FCA1025448FFF7A0FC6102AF
:1009E0005248FFF79EFC9FE0092C14D14FF40041C0
:1009F0004E48FFF796FC4FF480414C48FFF78FFCC0
:100A00004FF400514948FFF78AFC4FF480514748A2
:100A1000FFF787FC88E00A2C14D14FF400414348CB
:100A2000FFF77DFC4FF480414048FFF77AFC4FF41C
:100A300000513E48FFF773FC4FF480513B48FFF7ED
:100A400070FC71E00B2C14D14FF400413748FFF7D4
:100A500068FC4FF480413548FFF763FC4FF40051C8
:100A60003248FFF75CFC4FF480513048FFF759FCE7
:100A70005AE00C2C14D14FF400412C48FFF74FFCE6
:100A80004FF480412948FFF74AFC4FF400512748B2
:100A9000FFF747FC4FF480512448FFF742FC43E046
:100AA0000D2C14D14FF400412048FFF73AFC4FF4CD
:100AB00080411E48FFF733FC4FF400511B48FFF7FD
:100AC00030FC4FF480511948FFF72BFC2CE00E2C22
:100AD00014D14FF400411548FFF721FC4FF4804139
:100AE0001248FFF71EFC4FF400511048FFF719FCA5
:100AF0004FF480510D48FFF714FC15E00F2C13D173
:100B00004FF400410948FFF70CFC4FF480410748BF
:100B1000FFF707FC4FF400510448FFF702FC4FF4C5
:100B200080510248FFF7FDFB10BD0000000C0140A2
:100B3000FFF7FAFB00F00EF808E0054800681428FB
:100B400002D3002002490860FFF71CFEF5E7000011
:100B50000000002010B5FFF742FBFFF71AFB10BDA5
:100B6000800B00080000002008010000200700089A
:100B7000880C00080801002000040000300700086D
:100B800000000000000000000080FFFFFFFF0000E9
:100B90000080FFFFFFFF00000080FFFFFFFF00005D
:100BA0000080FFFFFFFF00000080FFFFFFFF00004D
:100BB0000080FFFFFFFF00000080FFFFFFFF00003D
:100BC0000080FFFFFFFF00000080FFFFFFFF00002D
:100BD0000080FFFFFFFF00000080FFFFFFFF00001D
:100BE0000080FFFFFFFF00000080FFFFFFFF00000D
:100BF0000080FFFFFFE000000080FFFF1F8000007B
:100C00000080FFFF1F0000000080FFFF7F0000004A
:100C10000080FFFFFFC000000080FFFF3FC000001A
:100C20000080FFFF0FC000000080FF7F00C00000B9
:100C3000000000001EC000000000000000000000D6
:100C400000800F00000000000080FF07000000008F
:100C50000080FFFF030000000080FFFF1F00000076
:100C60000080FFFF3FF000000080FFFF1FF8000042
:100C70000080FFFF3FF000000080FFFFFFC1000089
:080C80000080FFFFFF070000E8
:0400000508000131BD
:00000001FF
